:03000000020006F5
:20005F00750856750901750A80750B6A750C01750D80750E7A750F017510807511867512A8
:07007F00017513800200036C
:0300030002008672
:20008600AE82AF83EE2508FBEF3509FCAD0A8B828C838DF0120104FB7D00EE250BF9EF359F
:2000A6000CFAAC0D89828A838CF01201047C002BF9EC3DFCEE250EFAEF350FFBAD108A82F9
:2000C6008B838DF01201047D0029FAED3CFDEE2424F582EF3401F583E4937B002AFAEB3D2B
:1E00E600FDEE2511FEEF3512FFAC138E828F838CF01201047F002AF582EF3DF583224E
:20012400494E464F3A636F6D70696C65725F76657273696F6E5B30303030303030342E3058
:20014400303030303030312E30303030303030305D00494E464F3A636F6D70696C65725B23
:20016400534443435D00494E464F3A706C6174666F726D5B5D00494E464F3A617263685B1F
:1B0184005D00494E464F3A6469616C6563745F64656661756C745B31315D0069
:06003500E478FFF6D8FD9F
:200013007900E94400601B7A0090019F780175A000E493F2A308B8000205A0D9F4DAF275F3
:02003300A0FF2C
:20003B007800E84400600A790175A000E4F309D8FC7800E84400600C7900900001E4F0A3C3
:04005B00D8FCD9FAFA
:0D000600758116120120E5826003020003DF
:1C01040020F71430F6148883A88220F507E6A88375830022E280F7E49322E0220A
:0401200075820022C2
:00000001FF
